{
  "_format": "hh-sol-artifact-1",
  "contractName": "Ballot",
  "sourceName": "contracts/Ballot.sol",
  "abi": [
    {
      "inputs": [],
      "stateMutability": "nonpayable",
      "type": "constructor"
    },
    {
      "inputs": [
        {
          "internalType": "uint256",
          "name": "candidateCitizenNo",
          "type": "uint256"
        },
        {
          "internalType": "string",
          "name": "candidateName",
          "type": "string"
        },
        {
          "internalType": "string",
          "name": "partyName",
          "type": "string"
        },
        {
          "internalType": "string",
          "name": "partyFlag",
          "type": "string"
        },
        {
          "internalType": "uint8",
          "name": "stateCode",
          "type": "uint8"
        },
        {
          "internalType": "uint8",
          "name": "constituencyCode",
          "type": "uint8"
        }
      ],
      "name": "createCandidate",
      "outputs": [],
      "stateMutability": "nonpayable",
      "type": "function"
    },
    {
      "inputs": [
        {
          "internalType": "uint256",
          "name": "voterCitizenNo_",
          "type": "uint256"
        },
        {
          "internalType": "string",
          "name": "voterName_",
          "type": "string"
        },
        {
          "internalType": "uint8",
          "name": "age_",
          "type": "uint8"
        },
        {
          "internalType": "uint8",
          "name": "stateCode_",
          "type": "uint8"
        },
        {
          "internalType": "uint8",
          "name": "constituencyCode_",
          "type": "uint8"
        }
      ],
      "name": "createVoter",
      "outputs": [],
      "stateMutability": "nonpayable",
      "type": "function"
    },
    {
      "inputs": [],
      "name": "getAllCandidates",
      "outputs": [
        {
          "components": [
            {
              "internalType": "uint256",
              "name": "candidateCitizenNo",
              "type": "uint256"
            },
            {
              "internalType": "string",
              "name": "candidateName",
              "type": "string"
            },
            {
              "internalType": "string",
              "name": "partyName",
              "type": "string"
            },
            {
              "internalType": "string",
              "name": "partyFlag",
              "type": "string"
            },
            {
              "internalType": "uint8",
              "name": "stateCode",
              "type": "uint8"
            },
            {
              "internalType": "uint8",
              "name": "constituencyCode",
              "type": "uint8"
            },
            {
              "internalType": "uint256",
              "name": "voteCount",
              "type": "uint256"
            }
          ],
          "internalType": "struct Ballot.Candidate[]",
          "name": "",
          "type": "tuple[]"
        }
      ],
      "stateMutability": "view",
      "type": "function"
    },
    {
      "inputs": [],
      "name": "getAllVoters",
      "outputs": [
        {
          "components": [
            {
              "internalType": "uint256",
              "name": "voterCitizenNo",
              "type": "uint256"
            },
            {
              "internalType": "string",
              "name": "voterName",
              "type": "string"
            },
            {
              "internalType": "uint8",
              "name": "age",
              "type": "uint8"
            },
            {
              "internalType": "uint8",
              "name": "stateCode",
              "type": "uint8"
            },
            {
              "internalType": "uint8",
              "name": "constituencyCode",
              "type": "uint8"
            },
            {
              "internalType": "bool",
              "name": "voted",
              "type": "bool"
            },
            {
              "internalType": "bool",
              "name": "isAlive",
              "type": "bool"
            },
            {
              "internalType": "uint256",
              "name": "votedTo",
              "type": "uint256"
            }
          ],
          "internalType": "struct Ballot.Voter[]",
          "name": "",
          "type": "tuple[]"
        }
      ],
      "stateMutability": "view",
      "type": "function"
    },
    {
      "inputs": [
        {
          "internalType": "uint256",
          "name": "citizenNo_",
          "type": "uint256"
        }
      ],
      "name": "getCandidateIndexViaCitizenNo",
      "outputs": [
        {
          "internalType": "uint256",
          "name": "",
          "type": "uint256"
        }
      ],
      "stateMutability": "view",
      "type": "function"
    },
    {
      "inputs": [
        {
          "internalType": "uint256",
          "name": "voterCitizenNo",
          "type": "uint256"
        }
      ],
      "name": "getCandidateList",
      "outputs": [
        {
          "components": [
            {
              "internalType": "uint256",
              "name": "candidateCitizenNo",
              "type": "uint256"
            },
            {
              "internalType": "string",
              "name": "candidateName",
              "type": "string"
            },
            {
              "internalType": "string",
              "name": "partyName",
              "type": "string"
            },
            {
              "internalType": "string",
              "name": "partyFlag",
              "type": "string"
            },
            {
              "internalType": "uint8",
              "name": "stateCode",
              "type": "uint8"
            },
            {
              "internalType": "uint8",
              "name": "constituencyCode",
              "type": "uint8"
            },
            {
              "internalType": "uint256",
              "name": "voteCount",
              "type": "uint256"
            }
          ],
          "internalType": "struct Ballot.Candidate[]",
          "name": "",
          "type": "tuple[]"
        }
      ],
      "stateMutability": "view",
      "type": "function"
    },
    {
      "inputs": [
        {
          "internalType": "uint256",
          "name": "stateCode_",
          "type": "uint256"
        },
        {
          "internalType": "uint256",
          "name": "constituencyCode_",
          "type": "uint256"
        }
      ],
      "name": "getCandidateListViaCode",
      "outputs": [
        {
          "components": [
            {
              "internalType": "uint256",
              "name": "candidateCitizenNo",
              "type": "uint256"
            },
            {
              "internalType": "string",
              "name": "candidateName",
              "type": "string"
            },
            {
              "internalType": "string",
              "name": "partyName",
              "type": "string"
            },
            {
              "internalType": "string",
              "name": "partyFlag",
              "type": "string"
            },
            {
              "internalType": "uint8",
              "name": "stateCode",
              "type": "uint8"
            },
            {
              "internalType": "uint8",
              "name": "constituencyCode",
              "type": "uint8"
            },
            {
              "internalType": "uint256",
              "name": "voteCount",
              "type": "uint256"
            }
          ],
          "internalType": "struct Ballot.Candidate[]",
          "name": "",
          "type": "tuple[]"
        }
      ],
      "stateMutability": "view",
      "type": "function"
    },
    {
      "inputs": [
        {
          "internalType": "uint256",
          "name": "citizenNo_",
          "type": "uint256"
        }
      ],
      "name": "getVoteCount",
      "outputs": [
        {
          "internalType": "uint256",
          "name": "",
          "type": "uint256"
        }
      ],
      "stateMutability": "view",
      "type": "function"
    },
    {
      "inputs": [
        {
          "internalType": "uint256",
          "name": "citizenNo_",
          "type": "uint256"
        }
      ],
      "name": "getVoterIndexViaCitizenNo",
      "outputs": [
        {
          "internalType": "uint256",
          "name": "",
          "type": "uint256"
        }
      ],
      "stateMutability": "view",
      "type": "function"
    },
    {
      "inputs": [
        {
          "internalType": "address",
          "name": "voterAddress_",
          "type": "address"
        }
      ],
      "name": "getVoterViaAddress",
      "outputs": [
        {
          "components": [
            {
              "internalType": "uint256",
              "name": "voterCitizenNo",
              "type": "uint256"
            },
            {
              "internalType": "string",
              "name": "voterName",
              "type": "string"
            },
            {
              "internalType": "uint8",
              "name": "age",
              "type": "uint8"
            },
            {
              "internalType": "uint8",
              "name": "stateCode",
              "type": "uint8"
            },
            {
              "internalType": "uint8",
              "name": "constituencyCode",
              "type": "uint8"
            },
            {
              "internalType": "bool",
              "name": "voted",
              "type": "bool"
            },
            {
              "internalType": "bool",
              "name": "isAlive",
              "type": "bool"
            },
            {
              "internalType": "uint256",
              "name": "votedTo",
              "type": "uint256"
            }
          ],
          "internalType": "struct Ballot.Voter",
          "name": "",
          "type": "tuple"
        }
      ],
      "stateMutability": "view",
      "type": "function"
    },
    {
      "inputs": [],
      "name": "getWinner",
      "outputs": [
        {
          "components": [
            {
              "internalType": "uint256",
              "name": "candidateCitizenNo",
              "type": "uint256"
            },
            {
              "internalType": "string",
              "name": "candidateName",
              "type": "string"
            },
            {
              "internalType": "string",
              "name": "partyName",
              "type": "string"
            },
            {
              "internalType": "string",
              "name": "partyFlag",
              "type": "string"
            },
            {
              "internalType": "uint8",
              "name": "stateCode",
              "type": "uint8"
            },
            {
              "internalType": "uint8",
              "name": "constituencyCode",
              "type": "uint8"
            },
            {
              "internalType": "uint256",
              "name": "voteCount",
              "type": "uint256"
            }
          ],
          "internalType": "struct Ballot.Candidate",
          "name": "",
          "type": "tuple"
        }
      ],
      "stateMutability": "view",
      "type": "function"
    },
    {
      "inputs": [],
      "name": "i_electionCommision",
      "outputs": [
        {
          "internalType": "address",
          "name": "",
          "type": "address"
        }
      ],
      "stateMutability": "view",
      "type": "function"
    },
    {
      "inputs": [
        {
          "internalType": "uint256",
          "name": "voterCitizenNo",
          "type": "uint256"
        }
      ],
      "name": "isVoterEligible",
      "outputs": [
        {
          "internalType": "bool",
          "name": "",
          "type": "bool"
        }
      ],
      "stateMutability": "view",
      "type": "function"
    },
    {
      "inputs": [
        {
          "internalType": "uint256",
          "name": "citizenNo_",
          "type": "uint256"
        },
        {
          "internalType": "address",
          "name": "voterAddress_",
          "type": "address"
        }
      ],
      "name": "login",
      "outputs": [
        {
          "components": [
            {
              "internalType": "uint256",
              "name": "voterCitizenNo",
              "type": "uint256"
            },
            {
              "internalType": "string",
              "name": "voterName",
              "type": "string"
            },
            {
              "internalType": "uint8",
              "name": "age",
              "type": "uint8"
            },
            {
              "internalType": "uint8",
              "name": "stateCode",
              "type": "uint8"
            },
            {
              "internalType": "uint8",
              "name": "constituencyCode",
              "type": "uint8"
            },
            {
              "internalType": "bool",
              "name": "voted",
              "type": "bool"
            },
            {
              "internalType": "bool",
              "name": "isAlive",
              "type": "bool"
            },
            {
              "internalType": "uint256",
              "name": "votedTo",
              "type": "uint256"
            }
          ],
          "internalType": "struct Ballot.Voter",
          "name": "",
          "type": "tuple"
        }
      ],
      "stateMutability": "view",
      "type": "function"
    },
    {
      "inputs": [
        {
          "internalType": "uint256",
          "name": "candidateCitizenNo_",
          "type": "uint256"
        },
        {
          "internalType": "uint256",
          "name": "voterCitizenNo_",
          "type": "uint256"
        }
      ],
      "name": "vote",
      "outputs": [],
      "stateMutability": "payable",
      "type": "function"
    }
  ],
  "bytecode": "0x60a060405234801561001057600080fd5b503373ffffffffffffffffffffffffffffffffffffffff1660808173ffffffffffffffffffffffffffffffffffffffff16815250506363d6e4686000819055506363dad8e86001819055506080516139ed61007660003960006124c201526139ed6000f3fe6080604052600436106100e85760003560e01c8063a3e114fa1161008a578063b2c2f2e811610059578063b2c2f2e81461032e578063b384abef1461036b578063d8cb36e714610387578063dce8d8a3146103b2576100e8565b8063a3e114fa1461024e578063a4ce572d1461028b578063aa357789146102c8578063b0b8ec1014610305576100e8565b806335bbe70e116100c657806335bbe70e146101925780635db7f1e7146101bd578063618bde0a146101e65780638e7ea5b214610223576100e8565b806319c593ba146100ed5780631db174161461012a5780632e6997fe14610167575b600080fd5b3480156100f957600080fd5b50610114600480360381019061010f9190612799565b6103ef565b60405161012191906127d5565b60405180910390f35b34801561013657600080fd5b50610151600480360381019061014c91906127f0565b61048d565b60405161015e9190612a57565b60405180910390f35b34801561017357600080fd5b5061017c61093d565b6040516101899190612a57565b60405180910390f35b34801561019e57600080fd5b506101a7610ba0565b6040516101b49190612c06565b60405180910390f35b3480156101c957600080fd5b506101e460048036038101906101df9190612d89565b610d33565b005b3480156101f257600080fd5b5061020d60048036038101906102089190612799565b610ed8565b60405161021a9190612a57565b60405180910390f35b34801561022f57600080fd5b50610238611511565b6040516102459190612f14565b60405180910390f35b34801561025a57600080fd5b5061027560048036038101906102709190612f94565b6119e3565b6040516102829190613084565b60405180910390f35b34801561029757600080fd5b506102b260048036038101906102ad9190612799565b611bfa565b6040516102bf91906127d5565b60405180910390f35b3480156102d457600080fd5b506102ef60048036038101906102ea91906130a6565b611c5e565b6040516102fc9190613084565b60405180910390f35b34801561031157600080fd5b5061032c600480360381019061032791906130d3565b611deb565b005b34801561033a57600080fd5b5061035560048036038101906103509190612799565b612131565b60405161036291906127d5565b60405180910390f35b610385600480360381019061038091906127f0565b6121ba565b005b34801561039357600080fd5b5061039c6124c0565b6040516103a99190613179565b60405180910390f35b3480156103be57600080fd5b506103d960048036038101906103d49190612799565b6124e4565b6040516103e691906131a3565b60405180910390f35b600080600090505b60028054905081101561044c578260028281548110610419576104186131be565b5b906000526020600020906004020160000154036104395780915050610488565b80806104449061321c565b9150506103f7565b506040517f08c379a000000000000000000000000000000000000000000000000000000000815260040161047f906132c1565b60405180910390fd5b919050565b60606000805b60048054905081101561053f57600481815481106104b4576104b36131be565b5b906000526020600020906006020160040160009054906101000a900460ff1660ff16851480156105185750600481815481106104f3576104f26131be565b5b906000526020600020906006020160040160019054906101000a900460ff1660ff1684145b1561052c5781806105289061321c565b9250505b80806105379061321c565b915050610493565b5060008167ffffffffffffffff81111561055c5761055b612c32565b5b60405190808252806020026020018201604052801561059557816020015b6105826126ba565b81526020019060019003908161057a5790505b5090506000805b60048054905081101561093057600481815481106105bd576105bc6131be565b5b906000526020600020906006020160040160009054906101000a900460ff1660ff16871480156106215750600481815481106105fc576105fb6131be565b5b906000526020600020906006020160040160019054906101000a900460ff1660ff1686145b1561091d576040518060e0016040528060048381548110610645576106446131be565b5b9060005260206000209060060201600001548152602001600483815481106106705761066f6131be565b5b9060005260206000209060060201600101805461068c90613310565b80601f01602080910402602001604051908101604052809291908181526020018280546106b890613310565b80156107055780601f106106da57610100808354040283529160200191610705565b820191906000526020600020905b8154815290600101906020018083116106e857829003601f168201915b5050505050815260200160048381548110610723576107226131be565b5b9060005260206000209060060201600201805461073f90613310565b80601f016020809104026020016040519081016040528092919081815260200182805461076b90613310565b80156107b85780601f1061078d576101008083540402835291602001916107b8565b820191906000526020600020905b81548152906001019060200180831161079b57829003601f168201915b50505050508152602001600483815481106107d6576107d56131be565b5b906000526020600020906006020160030180546107f290613310565b80601f016020809104026020016040519081016040528092919081815260200182805461081e90613310565b801561086b5780601f106108405761010080835404028352916020019161086b565b820191906000526020600020905b81548152906001019060200180831161084e57829003601f168201915b5050505050815260200160048381548110610889576108886131be565b5b906000526020600020906006020160040160009054906101000a900460ff1660ff168152602001600483815481106108c4576108c36131be565b5b906000526020600020906006020160040160019054906101000a900460ff1660ff1681526020016000815250838381518110610903576109026131be565b5b602002602001018190525081806109199061321c565b9250505b80806109289061321c565b91505061059c565b5081935050505092915050565b60606004805480602002602001604051908101604052809291908181526020016000905b82821015610b9757838290600052602060002090600602016040518060e00160405290816000820154815260200160018201805461099e90613310565b80601f01602080910402602001604051908101604052809291908181526020018280546109ca90613310565b8015610a175780601f106109ec57610100808354040283529160200191610a17565b820191906000526020600020905b8154815290600101906020018083116109fa57829003601f168201915b50505050508152602001600282018054610a3090613310565b80601f0160208091040260200160405190810160405280929190818152602001828054610a5c90613310565b8015610aa95780601f10610a7e57610100808354040283529160200191610aa9565b820191906000526020600020905b815481529060010190602001808311610a8c57829003601f168201915b50505050508152602001600382018054610ac290613310565b80601f0160208091040260200160405190810160405280929190818152602001828054610aee90613310565b8015610b3b5780601f10610b1057610100808354040283529160200191610b3b565b820191906000526020600020905b815481529060010190602001808311610b1e57829003601f168201915b505050505081526020016004820160009054906101000a900460ff1660ff1660ff1681526020016004820160019054906101000a900460ff1660ff1660ff16815260200160058201548152505081526020019060010190610961565b50505050905090565b60606002805480602002602001604051908101604052809291908181526020016000905b82821015610d2a57838290600052602060002090600402016040518061010001604052908160008201548152602001600182018054610c0290613310565b80601f0160208091040260200160405190810160405280929190818152602001828054610c2e90613310565b8015610c7b5780601f10610c5057610100808354040283529160200191610c7b565b820191906000526020600020905b815481529060010190602001808311610c5e57829003601f168201915b505050505081526020016002820160009054906101000a900460ff1660ff1660ff1681526020016002820160019054906101000a900460ff1660ff1660ff1681526020016002820160029054906101000a900460ff1660ff1660ff1681526020016002820160039054906101000a900460ff161515151581526020016002820160049054906101000a900460ff1615151515815260200160038201548152505081526020019060010190610bc4565b50505050905090565b8560006001905060005b600280549050811015610d8e578260048281548110610d5f57610d5e6131be565b5b90600052602060002090600602016000015403610d7b57600091505b8080610d869061321c565b915050610d3d565b5080610dcf576040517f08c379a0000000000000000000000000000000000000000000000000000000008152600401610dc6906133b3565b60405180910390fd5b60046040518060e001604052808a81526020018981526020018881526020018781526020018660ff1681526020018560ff16815260200160008152509080600181540180825580915050600190039060005260206000209060060201600090919091909150600082015181600001556020820151816001019081610e53919061357f565b506040820151816002019081610e69919061357f565b506060820151816003019081610e7f919061357f565b5060808201518160040160006101000a81548160ff021916908360ff16021790555060a08201518160040160016101000a81548160ff021916908360ff16021790555060c0820151816005015550505050505050505050565b606060006002610ee7846103ef565b81548110610ef857610ef76131be565b5b90600052602060002090600402016040518061010001604052908160008201548152602001600182018054610f2c90613310565b80601f0160208091040260200160405190810160405280929190818152602001828054610f5890613310565b8015610fa55780601f10610f7a57610100808354040283529160200191610fa5565b820191906000526020600020905b815481529060010190602001808311610f8857829003601f168201915b505050505081526020016002820160009054906101000a900460ff1660ff1660ff1681526020016002820160019054906101000a900460ff1660ff1660ff1681526020016002820160029054906101000a900460ff1660ff1660ff1681526020016002820160039054906101000a900460ff161515151581526020016002820160049054906101000a900460ff1615151515815260200160038201548152505090506000805b600480549050811015611105576004818154811061106c5761106b6131be565b5b906000526020600020906006020160040160009054906101000a900460ff1660ff16836060015160ff161480156110de5750600481815481106110b2576110b16131be565b5b906000526020600020906006020160040160019054906101000a900460ff1660ff16836080015160ff16145b156110f25781806110ee9061321c565b9250505b80806110fd9061321c565b91505061104b565b5060008167ffffffffffffffff81111561112257611121612c32565b5b60405190808252806020026020018201604052801561115b57816020015b6111486126ba565b8152602001906001900390816111405790505b5090506000805b6004805490508110156115045760048181548110611183576111826131be565b5b906000526020600020906006020160040160009054906101000a900460ff1660ff16856060015160ff161480156111f55750600481815481106111c9576111c86131be565b5b906000526020600020906006020160040160019054906101000a900460ff1660ff16856080015160ff16145b156114f1576040518060e0016040528060048381548110611219576112186131be565b5b906000526020600020906006020160000154815260200160048381548110611244576112436131be565b5b9060005260206000209060060201600101805461126090613310565b80601f016020809104026020016040519081016040528092919081815260200182805461128c90613310565b80156112d95780601f106112ae576101008083540402835291602001916112d9565b820191906000526020600020905b8154815290600101906020018083116112bc57829003601f168201915b50505050508152602001600483815481106112f7576112f66131be565b5b9060005260206000209060060201600201805461131390613310565b80601f016020809104026020016040519081016040528092919081815260200182805461133f90613310565b801561138c5780601f106113615761010080835404028352916020019161138c565b820191906000526020600020905b81548152906001019060200180831161136f57829003601f168201915b50505050508152602001600483815481106113aa576113a96131be565b5b906000526020600020906006020160030180546113c690613310565b80601f01602080910402602001604051908101604052809291908181526020018280546113f290613310565b801561143f5780601f106114145761010080835404028352916020019161143f565b820191906000526020600020905b81548152906001019060200180831161142257829003601f168201915b505050505081526020016004838154811061145d5761145c6131be565b5b906000526020600020906006020160040160009054906101000a900460ff1660ff16815260200160048381548110611498576114976131be565b5b906000526020600020906006020160040160019054906101000a900460ff1660ff16815260200160008152508383815181106114d7576114d66131be565b5b602002602001018190525081806114ed9061321c565b9250505b80806114fc9061321c565b915050611162565b5081945050505050919050565b6115196126ba565b600060046000815481106115305761152f6131be565b5b90600052602060002090600602016040518060e00160405290816000820154815260200160018201805461156390613310565b80601f016020809104026020016040519081016040528092919081815260200182805461158f90613310565b80156115dc5780601f106115b1576101008083540402835291602001916115dc565b820191906000526020600020905b8154815290600101906020018083116115bf57829003601f168201915b505050505081526020016002820180546115f590613310565b80601f016020809104026020016040519081016040528092919081815260200182805461162190613310565b801561166e5780601f106116435761010080835404028352916020019161166e565b820191906000526020600020905b81548152906001019060200180831161165157829003601f168201915b5050505050815260200160038201805461168790613310565b80601f01602080910402602001604051908101604052809291908181526020018280546116b390613310565b80156117005780601f106116d557610100808354040283529160200191611700565b820191906000526020600020905b8154815290600101906020018083116116e357829003601f168201915b505050505081526020016004820160009054906101000a900460ff1660ff1660ff1681526020016004820160019054906101000a900460ff1660ff1660ff16815260200160058201548152505090506000600190505b6004805490508110156119db578160c001516004828154811061177c5761177b6131be565b5b90600052602060002090600602016005015411156119c857600481815481106117a8576117a76131be565b5b90600052602060002090600602016040518060e0016040529081600082015481526020016001820180546117db90613310565b80601f016020809104026020016040519081016040528092919081815260200182805461180790613310565b80156118545780601f1061182957610100808354040283529160200191611854565b820191906000526020600020905b81548152906001019060200180831161183757829003601f168201915b5050505050815260200160028201805461186d90613310565b80601f016020809104026020016040519081016040528092919081815260200182805461189990613310565b80156118e65780601f106118bb576101008083540402835291602001916118e6565b820191906000526020600020905b8154815290600101906020018083116118c957829003601f168201915b505050505081526020016003820180546118ff90613310565b80601f016020809104026020016040519081016040528092919081815260200182805461192b90613310565b80156119785780601f1061194d57610100808354040283529160200191611978565b820191906000526020600020905b81548152906001019060200180831161195b57829003601f168201915b505050505081526020016004820160009054906101000a900460ff1660ff1660ff1681526020016004820160019054906101000a900460ff1660ff1660ff16815260200160058201548152505091505b80806119d39061321c565b915050611756565b508091505090565b6119eb6126fd565b600360008373ffffffffffffffffffffffffffffffffffffffff1673ffffffffffffffffffffffffffffffffffffffff168152602001908152602001600020600001548303611bb957600360008373ffffffffffffffffffffffffffffffffffffffff1673ffffffffffffffffffffffffffffffffffffffff1681526020019081526020016000206040518061010001604052908160008201548152602001600182018054611a9990613310565b80601f0160208091040260200160405190810160405280929190818152602001828054611ac590613310565b8015611b125780601f10611ae757610100808354040283529160200191611b12565b820191906000526020600020905b815481529060010190602001808311611af557829003601f168201915b505050505081526020016002820160009054906101000a900460ff1660ff1660ff1681526020016002820160019054906101000a900460ff1660ff1660ff1681526020016002820160029054906101000a900460ff1660ff1660ff1681526020016002820160039054906101000a900460ff161515151581526020016002820160049054906101000a900460ff161515151581526020016003820154815250509050611bf4565b6040517f08c379a0000000000000000000000000000000000000000000000000000000008152600401611beb906136c3565b60405180910390fd5b92915050565b600080600090505b600280549050811015611c57578260048281548110611c2457611c236131be565b5b90600052602060002090600602016000015403611c445780915050611c59565b8080611c4f9061321c565b915050611c02565b505b919050565b611c666126fd565b600360008373ffffffffffffffffffffffffffffffffffffffff1673ffffffffffffffffffffffffffffffffffffffff1681526020019081526020016000206040518061010001604052908160008201548152602001600182018054611ccb90613310565b80601f0160208091040260200160405190810160405280929190818152602001828054611cf790613310565b8015611d445780601f10611d1957610100808354040283529160200191611d44565b820191906000526020600020905b815481529060010190602001808311611d2757829003601f168201915b505050505081526020016002820160009054906101000a900460ff1660ff1660ff1681526020016002820160019054906101000a900460ff1660ff1660ff1681526020016002820160029054906101000a900460ff1660ff1660ff1681526020016002820160039054906101000a900460ff161515151581526020016002820160049054906101000a900460ff161515151581526020016003820154815250509050919050565b8460006001905060005b600280549050811015611e4a578260028281548110611e1757611e166131be565b5b90600052602060002090600402016000015403611e375760009150611e4a565b8080611e429061321c565b915050611df5565b5080611e8b576040517f08c379a0000000000000000000000000000000000000000000000000000000008152600401611e8290613755565b60405180910390fd5b60026040518061010001604052808981526020018881526020018760ff1681526020018660ff1681526020018560ff16815260200160001515815260200160011515815260200160008152509080600181540180825580915050600190039060005260206000209060040201600090919091909150600082015181600001556020820151816001019081611f1f919061357f565b5060408201518160020160006101000a81548160ff021916908360ff16021790555060608201518160020160016101000a81548160ff021916908360ff16021790555060808201518160020160026101000a81548160ff021916908360ff16021790555060a08201518160020160036101000a81548160ff02191690831515021790555060c08201518160020160046101000a81548160ff02191690831515021790555060e0820151816003015550506040518061010001604052808881526020018781526020018660ff1681526020018560ff1681526020018460ff1681526020016000151581526020016001151581526020016000815250600360003373ffffffffffffffffffffffffffffffffffffffff1673ffffffffffffffffffffffffffffffffffffffff168152602001908152602001600020600082015181600001556020820151816001019081612077919061357f565b5060408201518160020160006101000a81548160ff021916908360ff16021790555060608201518160020160016101000a81548160ff021916908360ff16021790555060808201518160020160026101000a81548160ff021916908360ff16021790555060a08201518160020160036101000a81548160ff02191690831515021790555060c08201518160020160046101000a81548160ff02191690831515021790555060e0820151816003015590505050505050505050565b600080600090505b6002805490508110156121b357826004828154811061215b5761215a6131be565b5b906000526020600020906006020160000154036121a05760048181548110612186576121856131be565b5b9060005260206000209060060201600501549150506121b5565b80806121ab9061321c565b915050612139565b505b919050565b8082600060026121c9846103ef565b815481106121da576121d96131be565b5b90600052602060002090600402019050600060046121f784611bfa565b81548110612208576122076131be565b5b9060005260206000209060060201905060128260020160009054906101000a900460ff1660ff161015612270576040517f08c379a0000000000000000000000000000000000000000000000000000000008152600401612267906137c1565b60405180910390fd5b8160020160049054906101000a900460ff166122c1576040517f08c379a00000000000000000000000000000000000000000000000000000000081526004016122b89061382d565b60405180910390fd5b8160020160039054906101000a900460ff1615612313576040517f08c379a000000000000000000000000000000000000000000000000000000000815260040161230a90613899565b60405180910390fd5b8160020160019054906101000a900460ff1660ff168160040160009054906101000a900460ff1660ff1614801561237157508160020160029054906101000a900460ff1660ff168160040160019054906101000a900460ff1660ff16145b6123b0576040517f08c379a00000000000000000000000000000000000000000000000000000000081526004016123a79061392b565b60405180910390fd5b600160026123bd876103ef565b815481106123ce576123cd6131be565b5b906000526020600020906004020160020160036101000a81548160ff021916908315150217905550856002612402876103ef565b81548110612413576124126131be565b5b90600052602060002090600402016003018190555060005b6004805490508110156124b757866004828154811061244d5761244c6131be565b5b906000526020600020906006020160000154036124a45760048181548110612478576124776131be565b5b9060005260206000209060060201600501600081548092919061249a9061321c565b91905055506124b7565b80806124af9061321c565b91505061242b565b50505050505050565b7f000000000000000000000000000000000000000000000000000000000000000081565b60008060026124f2846103ef565b81548110612503576125026131be565b5b9060005260206000209060040201604051806101000160405290816000820154815260200160018201805461253790613310565b80601f016020809104026020016040519081016040528092919081815260200182805461256390613310565b80156125b05780601f10612585576101008083540402835291602001916125b0565b820191906000526020600020905b81548152906001019060200180831161259357829003601f168201915b505050505081526020016002820160009054906101000a900460ff1660ff1660ff1681526020016002820160019054906101000a900460ff1660ff1660ff1681526020016002820160029054906101000a900460ff1660ff1660ff1681526020016002820160039054906101000a900460ff161515151581526020016002820160049054906101000a900460ff1615151515815260200160038201548152505090506012816040015160ff161015801561266b57508060c001515b1561267a5760019150506126b5565b6040517f08c379a00000000000000000000000000000000000000000000000000000000081526004016126ac90613997565b60405180910390fd5b919050565b6040518060e0016040528060008152602001606081526020016060815260200160608152602001600060ff168152602001600060ff168152602001600081525090565b6040518061010001604052806000815260200160608152602001600060ff168152602001600060ff168152602001600060ff168152602001600015158152602001600015158152602001600081525090565b6000604051905090565b600080fd5b600080fd5b6000819050919050565b61277681612763565b811461278157600080fd5b50565b6000813590506127938161276d565b92915050565b6000602082840312156127af576127ae612759565b5b60006127bd84828501612784565b91505092915050565b6127cf81612763565b82525050565b60006020820190506127ea60008301846127c6565b92915050565b6000806040838503121561280757612806612759565b5b600061281585828601612784565b925050602061282685828601612784565b9150509250929050565b600081519050919050565b600082825260208201905092915050565b6000819050602082019050919050565b61286581612763565b82525050565b600081519050919050565b600082825260208201905092915050565b60005b838110156128a557808201518184015260208101905061288a565b60008484015250505050565b6000601f19601f8301169050919050565b60006128cd8261286b565b6128d78185612876565b93506128e7818560208601612887565b6128f0816128b1565b840191505092915050565b600060ff82169050919050565b612911816128fb565b82525050565b600060e08301600083015161292f600086018261285c565b506020830151848203602086015261294782826128c2565b9150506040830151848203604086015261296182826128c2565b9150506060830151848203606086015261297b82826128c2565b91505060808301516129906080860182612908565b5060a08301516129a360a0860182612908565b5060c08301516129b660c086018261285c565b508091505092915050565b60006129cd8383612917565b905092915050565b6000602082019050919050565b60006129ed82612830565b6129f7818561283b565b935083602082028501612a098561284c565b8060005b85811015612a455784840389528151612a2685826129c1565b9450612a31836129d5565b925060208a01995050600181019050612a0d565b50829750879550505050505092915050565b60006020820190508181036000830152612a7181846129e2565b905092915050565b600081519050919050565b600082825260208201905092915050565b6000819050602082019050919050565b60008115159050919050565b612aba81612aa5565b82525050565b600061010083016000830151612ad9600086018261285c565b5060208301518482036020860152612af182826128c2565b9150506040830151612b066040860182612908565b506060830151612b196060860182612908565b506080830151612b2c6080860182612908565b5060a0830151612b3f60a0860182612ab1565b5060c0830151612b5260c0860182612ab1565b5060e0830151612b6560e086018261285c565b508091505092915050565b6000612b7c8383612ac0565b905092915050565b6000602082019050919050565b6000612b9c82612a79565b612ba68185612a84565b935083602082028501612bb885612a95565b8060005b85811015612bf45784840389528151612bd58582612b70565b9450612be083612b84565b925060208a01995050600181019050612bbc565b50829750879550505050505092915050565b60006020820190508181036000830152612c208184612b91565b905092915050565b600080fd5b600080fd5b7f4e487b7100000000000000000000000000000000000000000000000000000000600052604160045260246000fd5b612c6a826128b1565b810181811067ffffffffffffffff82111715612c8957612c88612c32565b5b80604052505050565b6000612c9c61274f565b9050612ca88282612c61565b919050565b600067ffffffffffffffff821115612cc857612cc7612c32565b5b612cd1826128b1565b9050602081019050919050565b82818337600083830152505050565b6000612d00612cfb84612cad565b612c92565b905082815260208101848484011115612d1c57612d1b612c2d565b5b612d27848285612cde565b509392505050565b600082601f830112612d4457612d43612c28565b5b8135612d54848260208601612ced565b91505092915050565b612d66816128fb565b8114612d7157600080fd5b50565b600081359050612d8381612d5d565b92915050565b60008060008060008060c08789031215612da657612da5612759565b5b6000612db489828a01612784565b965050602087013567ffffffffffffffff811115612dd557612dd461275e565b5b612de189828a01612d2f565b955050604087013567ffffffffffffffff811115612e0257612e0161275e565b5b612e0e89828a01612d2f565b945050606087013567ffffffffffffffff811115612e2f57612e2e61275e565b5b612e3b89828a01612d2f565b9350506080612e4c89828a01612d74565b92505060a0612e5d89828a01612d74565b9150509295509295509295565b600060e083016000830151612e82600086018261285c565b5060208301518482036020860152612e9a82826128c2565b91505060408301518482036040860152612eb482826128c2565b91505060608301518482036060860152612ece82826128c2565b9150506080830151612ee36080860182612908565b5060a0830151612ef660a0860182612908565b5060c0830151612f0960c086018261285c565b508091505092915050565b60006020820190508181036000830152612f2e8184612e6a565b905092915050565b600073ffffffffffffffffffffffffffffffffffffffff82169050919050565b6000612f6182612f36565b9050919050565b612f7181612f56565b8114612f7c57600080fd5b50565b600081359050612f8e81612f68565b92915050565b60008060408385031215612fab57612faa612759565b5b6000612fb985828601612784565b9250506020612fca85828601612f7f565b9150509250929050565b600061010083016000830151612fed600086018261285c565b506020830151848203602086015261300582826128c2565b915050604083015161301a6040860182612908565b50606083015161302d6060860182612908565b5060808301516130406080860182612908565b5060a083015161305360a0860182612ab1565b5060c083015161306660c0860182612ab1565b5060e083015161307960e086018261285c565b508091505092915050565b6000602082019050818103600083015261309e8184612fd4565b905092915050565b6000602082840312156130bc576130bb612759565b5b60006130ca84828501612f7f565b91505092915050565b600080600080600060a086880312156130ef576130ee612759565b5b60006130fd88828901612784565b955050602086013567ffffffffffffffff81111561311e5761311d61275e565b5b61312a88828901612d2f565b945050604061313b88828901612d74565b935050606061314c88828901612d74565b925050608061315d88828901612d74565b9150509295509295909350565b61317381612f56565b82525050565b600060208201905061318e600083018461316a565b92915050565b61319d81612aa5565b82525050565b60006020820190506131b86000830184613194565b92915050565b7f4e487b7100000000000000000000000000000000000000000000000000000000600052603260045260246000fd5b7f4e487b7100000000000000000000000000000000000000000000000000000000600052601160045260246000fd5b600061322782612763565b91507fffffffffffffffffffffffffffffffffffffffffffffffffffffffffffffffff8203613259576132586131ed565b5b600182019050919050565b600082825260208201905092915050565b7f4e6f20566f746572207769746820676976656e20436974697a656e204e6f5f00600082015250565b60006132ab601f83613264565b91506132b682613275565b602082019050919050565b600060208201905081810360008301526132da8161329e565b9050919050565b7f4e487b7100000000000000000000000000000000000000000000000000000000600052602260045260246000fd5b6000600282049050600182168061332857607f821691505b60208210810361333b5761333a6132e1565b5b50919050565b7f43616e646964617465207769746820636974697a656e204e6f2e20616c72656160008201527f6479206578697374210000000000000000000000000000000000000000000000602082015250565b600061339d602983613264565b91506133a882613341565b604082019050919050565b600060208201905081810360008301526133cc81613390565b9050919050565b60008190508160005260206000209050919050565b60006020601f8301049050919050565b600082821b905092915050565b6000600883026134357fffffffffffffffffffffffffffffffffffffffffffffffffffffffffffffffff826133f8565b61343f86836133f8565b95508019841693508086168417925050509392505050565b6000819050919050565b600061347c61347761347284612763565b613457565b612763565b9050919050565b6000819050919050565b61349683613461565b6134aa6134a282613483565b848454613405565b825550505050565b600090565b6134bf6134b2565b6134ca81848461348d565b505050565b5b818110156134ee576134e36000826134b7565b6001810190506134d0565b5050565b601f82111561353357613504816133d3565b61350d846133e8565b8101602085101561351c578190505b613530613528856133e8565b8301826134cf565b50505b505050565b600082821c905092915050565b600061355660001984600802613538565b1980831691505092915050565b600061356f8383613545565b9150826002028217905092915050565b6135888261286b565b67ffffffffffffffff8111156135a1576135a0612c32565b5b6135ab8254613310565b6135b68282856134f2565b600060209050601f8311600181146135e957600084156135d7578287015190505b6135e18582613563565b865550613649565b601f1984166135f7866133d3565b60005b8281101561361f578489015182556001820191506020850194506020810190506135fa565b8683101561363c5784890151613638601f891682613545565b8355505b6001600288020188555050505b505050505050565b7f436974697a656e4e6f2e20616e6420566f746572204164647265737320646f6560008201527f736e2774206d6174636821210000000000000000000000000000000000000000602082015250565b60006136ad602c83613264565b91506136b882613651565b604082019050919050565b600060208201905081810360008301526136dc816136a0565b9050919050565b7f566f746572207769746820636974697a656e204e6f2e20616c7265616479206560008201527f7869737421000000000000000000000000000000000000000000000000000000602082015250565b600061373f602583613264565b915061374a826136e3565b604082019050919050565b6000602082019050818103600083015261376e81613732565b9050919050565b7f416765206e6565647320746f206265206772656174657220746861746e203138600082015250565b60006137ab602083613264565b91506137b682613775565b602082019050919050565b600060208201905081810360008301526137da8161379e565b9050919050565b7f566f746572206d75737420626520616c69766500000000000000000000000000600082015250565b6000613817601383613264565b9150613822826137e1565b602082019050919050565b600060208201905081810360008301526138468161380a565b9050919050565b7f416c726561647920766f74656421000000000000000000000000000000000000600082015250565b6000613883600e83613264565b915061388e8261384d565b602082019050919050565b600060208201905081810360008301526138b281613876565b9050919050565b7f566f746572206973206e6f7420696e207468652073616d652061732063616e6460008201527f6964617465207374617465206f7220636f6e7374697475656e63792041726561602082015250565b6000613915604083613264565b9150613920826138b9565b604082019050919050565b6000602082019050818103600083015261394481613908565b9050919050565b7f566f746572206973206e6f7420456c69626c6520746f20766f74652121000000600082015250565b6000613981601d83613264565b915061398c8261394b565b602082019050919050565b600060208201905081810360008301526139b081613974565b905091905056fea2646970667358221220cea1fe05b0e938bba855649666f7ee203a5b45b19038023aac9543c02538b81564736f6c63430008110033",
  "linkReferences": {},
  "deployedLinkReferences": {}
}