{
  "_format": "hh-sol-artifact-1",
  "contractName": "Ballot",
  "sourceName": "contracts/Ballot.sol",
  "abi": [
    {
      "inputs": [],
      "stateMutability": "nonpayable",
      "type": "constructor"
    },
    {
      "inputs": [
        {
          "internalType": "uint256",
          "name": "candidateCitizenNo",
          "type": "uint256"
        },
        {
          "internalType": "string",
          "name": "candidateName",
          "type": "string"
        },
        {
          "internalType": "string",
          "name": "partyName",
          "type": "string"
        },
        {
          "internalType": "string",
          "name": "partyFlag",
          "type": "string"
        },
        {
          "internalType": "uint8",
          "name": "stateCode",
          "type": "uint8"
        },
        {
          "internalType": "uint8",
          "name": "constituencyCode",
          "type": "uint8"
        }
      ],
      "name": "createCandidate",
      "outputs": [],
      "stateMutability": "nonpayable",
      "type": "function"
    },
    {
      "inputs": [
        {
          "internalType": "uint256",
          "name": "voterCitizenNo_",
          "type": "uint256"
        },
        {
          "internalType": "string",
          "name": "voterName_",
          "type": "string"
        },
        {
          "internalType": "uint8",
          "name": "age_",
          "type": "uint8"
        },
        {
          "internalType": "uint8",
          "name": "stateCode_",
          "type": "uint8"
        },
        {
          "internalType": "uint8",
          "name": "constituencyCode_",
          "type": "uint8"
        }
      ],
      "name": "createVoter",
      "outputs": [],
      "stateMutability": "nonpayable",
      "type": "function"
    },
    {
      "inputs": [],
      "name": "getAllCandidates",
      "outputs": [
        {
          "components": [
            {
              "internalType": "uint256",
              "name": "candidateCitizenNo",
              "type": "uint256"
            },
            {
              "internalType": "string",
              "name": "candidateName",
              "type": "string"
            },
            {
              "internalType": "string",
              "name": "partyName",
              "type": "string"
            },
            {
              "internalType": "string",
              "name": "partyFlag",
              "type": "string"
            },
            {
              "internalType": "uint8",
              "name": "stateCode",
              "type": "uint8"
            },
            {
              "internalType": "uint8",
              "name": "constituencyCode",
              "type": "uint8"
            },
            {
              "internalType": "uint256",
              "name": "voteCount",
              "type": "uint256"
            }
          ],
          "internalType": "struct Ballot.Candidate[]",
          "name": "",
          "type": "tuple[]"
        }
      ],
      "stateMutability": "view",
      "type": "function"
    },
    {
      "inputs": [],
      "name": "getAllVoters",
      "outputs": [
        {
          "components": [
            {
              "internalType": "uint256",
              "name": "voterCitizenNo",
              "type": "uint256"
            },
            {
              "internalType": "string",
              "name": "voterName",
              "type": "string"
            },
            {
              "internalType": "uint8",
              "name": "age",
              "type": "uint8"
            },
            {
              "internalType": "uint8",
              "name": "stateCode",
              "type": "uint8"
            },
            {
              "internalType": "uint8",
              "name": "constituencyCode",
              "type": "uint8"
            },
            {
              "internalType": "bool",
              "name": "voted",
              "type": "bool"
            },
            {
              "internalType": "bool",
              "name": "isAlive",
              "type": "bool"
            },
            {
              "internalType": "uint256",
              "name": "votedTo",
              "type": "uint256"
            }
          ],
          "internalType": "struct Ballot.Voter[]",
          "name": "",
          "type": "tuple[]"
        }
      ],
      "stateMutability": "view",
      "type": "function"
    },
    {
      "inputs": [
        {
          "internalType": "uint256",
          "name": "citizenNo_",
          "type": "uint256"
        }
      ],
      "name": "getCandidateIndexViaCitizenNo",
      "outputs": [
        {
          "internalType": "uint256",
          "name": "",
          "type": "uint256"
        }
      ],
      "stateMutability": "view",
      "type": "function"
    },
    {
      "inputs": [
        {
          "internalType": "uint256",
          "name": "voterCitizenNo",
          "type": "uint256"
        }
      ],
      "name": "getCandidateList",
      "outputs": [
        {
          "components": [
            {
              "internalType": "uint256",
              "name": "candidateCitizenNo",
              "type": "uint256"
            },
            {
              "internalType": "string",
              "name": "candidateName",
              "type": "string"
            },
            {
              "internalType": "string",
              "name": "partyName",
              "type": "string"
            },
            {
              "internalType": "string",
              "name": "partyFlag",
              "type": "string"
            },
            {
              "internalType": "uint8",
              "name": "stateCode",
              "type": "uint8"
            },
            {
              "internalType": "uint8",
              "name": "constituencyCode",
              "type": "uint8"
            },
            {
              "internalType": "uint256",
              "name": "voteCount",
              "type": "uint256"
            }
          ],
          "internalType": "struct Ballot.Candidate[]",
          "name": "",
          "type": "tuple[]"
        }
      ],
      "stateMutability": "view",
      "type": "function"
    },
    {
      "inputs": [
        {
          "internalType": "uint256",
          "name": "stateCode_",
          "type": "uint256"
        },
        {
          "internalType": "uint256",
          "name": "constituencyCode_",
          "type": "uint256"
        }
      ],
      "name": "getCandidateListViaCode",
      "outputs": [
        {
          "components": [
            {
              "internalType": "uint256",
              "name": "candidateCitizenNo",
              "type": "uint256"
            },
            {
              "internalType": "string",
              "name": "candidateName",
              "type": "string"
            },
            {
              "internalType": "string",
              "name": "partyName",
              "type": "string"
            },
            {
              "internalType": "string",
              "name": "partyFlag",
              "type": "string"
            },
            {
              "internalType": "uint8",
              "name": "stateCode",
              "type": "uint8"
            },
            {
              "internalType": "uint8",
              "name": "constituencyCode",
              "type": "uint8"
            },
            {
              "internalType": "uint256",
              "name": "voteCount",
              "type": "uint256"
            }
          ],
          "internalType": "struct Ballot.Candidate[]",
          "name": "",
          "type": "tuple[]"
        }
      ],
      "stateMutability": "view",
      "type": "function"
    },
    {
      "inputs": [
        {
          "internalType": "uint256",
          "name": "citizenNo_",
          "type": "uint256"
        }
      ],
      "name": "getVoteCount",
      "outputs": [
        {
          "internalType": "uint256",
          "name": "",
          "type": "uint256"
        }
      ],
      "stateMutability": "view",
      "type": "function"
    },
    {
      "inputs": [
        {
          "internalType": "uint256",
          "name": "citizenNo_",
          "type": "uint256"
        }
      ],
      "name": "getVoterIndexViaCitizenNo",
      "outputs": [
        {
          "internalType": "uint256",
          "name": "",
          "type": "uint256"
        }
      ],
      "stateMutability": "view",
      "type": "function"
    },
    {
      "inputs": [
        {
          "internalType": "address",
          "name": "voterAddress_",
          "type": "address"
        }
      ],
      "name": "getVoterViaAddress",
      "outputs": [
        {
          "components": [
            {
              "internalType": "uint256",
              "name": "voterCitizenNo",
              "type": "uint256"
            },
            {
              "internalType": "string",
              "name": "voterName",
              "type": "string"
            },
            {
              "internalType": "uint8",
              "name": "age",
              "type": "uint8"
            },
            {
              "internalType": "uint8",
              "name": "stateCode",
              "type": "uint8"
            },
            {
              "internalType": "uint8",
              "name": "constituencyCode",
              "type": "uint8"
            },
            {
              "internalType": "bool",
              "name": "voted",
              "type": "bool"
            },
            {
              "internalType": "bool",
              "name": "isAlive",
              "type": "bool"
            },
            {
              "internalType": "uint256",
              "name": "votedTo",
              "type": "uint256"
            }
          ],
          "internalType": "struct Ballot.Voter",
          "name": "",
          "type": "tuple"
        }
      ],
      "stateMutability": "view",
      "type": "function"
    },
    {
      "inputs": [],
      "name": "getWinner",
      "outputs": [
        {
          "components": [
            {
              "internalType": "uint256",
              "name": "candidateCitizenNo",
              "type": "uint256"
            },
            {
              "internalType": "string",
              "name": "candidateName",
              "type": "string"
            },
            {
              "internalType": "string",
              "name": "partyName",
              "type": "string"
            },
            {
              "internalType": "string",
              "name": "partyFlag",
              "type": "string"
            },
            {
              "internalType": "uint8",
              "name": "stateCode",
              "type": "uint8"
            },
            {
              "internalType": "uint8",
              "name": "constituencyCode",
              "type": "uint8"
            },
            {
              "internalType": "uint256",
              "name": "voteCount",
              "type": "uint256"
            }
          ],
          "internalType": "struct Ballot.Candidate",
          "name": "",
          "type": "tuple"
        }
      ],
      "stateMutability": "view",
      "type": "function"
    },
    {
      "inputs": [],
      "name": "i_electionCommision",
      "outputs": [
        {
          "internalType": "address",
          "name": "",
          "type": "address"
        }
      ],
      "stateMutability": "view",
      "type": "function"
    },
    {
      "inputs": [
        {
          "internalType": "uint256",
          "name": "voterCitizenNo",
          "type": "uint256"
        }
      ],
      "name": "isVoterEligible",
      "outputs": [
        {
          "internalType": "bool",
          "name": "",
          "type": "bool"
        }
      ],
      "stateMutability": "view",
      "type": "function"
    },
    {
      "inputs": [
        {
          "internalType": "uint256",
          "name": "citizenNo_",
          "type": "uint256"
        },
        {
          "internalType": "address",
          "name": "voterAddress_",
          "type": "address"
        }
      ],
      "name": "login",
      "outputs": [
        {
          "components": [
            {
              "internalType": "uint256",
              "name": "voterCitizenNo",
              "type": "uint256"
            },
            {
              "internalType": "string",
              "name": "voterName",
              "type": "string"
            },
            {
              "internalType": "uint8",
              "name": "age",
              "type": "uint8"
            },
            {
              "internalType": "uint8",
              "name": "stateCode",
              "type": "uint8"
            },
            {
              "internalType": "uint8",
              "name": "constituencyCode",
              "type": "uint8"
            },
            {
              "internalType": "bool",
              "name": "voted",
              "type": "bool"
            },
            {
              "internalType": "bool",
              "name": "isAlive",
              "type": "bool"
            },
            {
              "internalType": "uint256",
              "name": "votedTo",
              "type": "uint256"
            }
          ],
          "internalType": "struct Ballot.Voter",
          "name": "",
          "type": "tuple"
        }
      ],
      "stateMutability": "view",
      "type": "function"
    },
    {
      "inputs": [
        {
          "internalType": "uint256",
          "name": "candidateCitizenNo_",
          "type": "uint256"
        },
        {
          "internalType": "uint256",
          "name": "voterCitizenNo_",
          "type": "uint256"
        }
      ],
      "name": "vote",
      "outputs": [],
      "stateMutability": "payable",
      "type": "function"
    }
  ],
  "bytecode": "0x60a060405234801561001057600080fd5b503373ffffffffffffffffffffffffffffffffffffffff1660808173ffffffffffffffffffffffffffffffffffffffff16815250506363d044346000819055506363e5a833600181905550608051613b8b61007660003960006125880152613b8b6000f3fe6080604052600436106100e85760003560e01c8063a3e114fa1161008a578063b2c2f2e811610059578063b2c2f2e81461032e578063b384abef1461036b578063d8cb36e714610387578063dce8d8a3146103b2576100e8565b8063a3e114fa1461024e578063a4ce572d1461028b578063aa357789146102c8578063b0b8ec1014610305576100e8565b806335bbe70e116100c657806335bbe70e146101925780635db7f1e7146101bd578063618bde0a146101e65780638e7ea5b214610223576100e8565b806319c593ba146100ed5780631db174161461012a5780632e6997fe14610167575b600080fd5b3480156100f957600080fd5b50610114600480360381019061010f919061285f565b6103ef565b604051610121919061289b565b60405180910390f35b34801561013657600080fd5b50610151600480360381019061014c91906128b6565b61048d565b60405161015e9190612b1d565b60405180910390f35b34801561017357600080fd5b5061017c61093d565b6040516101899190612b1d565b60405180910390f35b34801561019e57600080fd5b506101a7610ba0565b6040516101b49190612ccc565b60405180910390f35b3480156101c957600080fd5b506101e460048036038101906101df9190612e4f565b610d33565b005b3480156101f257600080fd5b5061020d6004803603810190610208919061285f565b610edc565b60405161021a9190612b1d565b60405180910390f35b34801561022f57600080fd5b50610238611515565b6040516102459190612fda565b60405180910390f35b34801561025a57600080fd5b506102756004803603810190610270919061305a565b611a1d565b604051610282919061314a565b60405180910390f35b34801561029757600080fd5b506102b260048036038101906102ad919061285f565b611c34565b6040516102bf919061289b565b60405180910390f35b3480156102d457600080fd5b506102ef60048036038101906102ea919061316c565b611c98565b6040516102fc919061314a565b60405180910390f35b34801561031157600080fd5b5061032c60048036038101906103279190613199565b611e25565b005b34801561033a57600080fd5b506103556004803603810190610350919061285f565b61216b565b604051610362919061289b565b60405180910390f35b610385600480360381019061038091906128b6565b6121f4565b005b34801561039357600080fd5b5061039c612586565b6040516103a9919061323f565b60405180910390f35b3480156103be57600080fd5b506103d960048036038101906103d4919061285f565b6125aa565b6040516103e69190613269565b60405180910390f35b600080600090505b60028054905081101561044c57826002828154811061041957610418613284565b5b906000526020600020906004020160000154036104395780915050610488565b8080610444906132e2565b9150506103f7565b506040517f08c379a000000000000000000000000000000000000000000000000000000000815260040161047f90613387565b60405180910390fd5b919050565b60606000805b60048054905081101561053f57600481815481106104b4576104b3613284565b5b906000526020600020906006020160040160009054906101000a900460ff1660ff16851480156105185750600481815481106104f3576104f2613284565b5b906000526020600020906006020160040160019054906101000a900460ff1660ff1684145b1561052c578180610528906132e2565b9250505b8080610537906132e2565b915050610493565b5060008167ffffffffffffffff81111561055c5761055b612cf8565b5b60405190808252806020026020018201604052801561059557816020015b610582612780565b81526020019060019003908161057a5790505b5090506000805b60048054905081101561093057600481815481106105bd576105bc613284565b5b906000526020600020906006020160040160009054906101000a900460ff1660ff16871480156106215750600481815481106105fc576105fb613284565b5b906000526020600020906006020160040160019054906101000a900460ff1660ff1686145b1561091d576040518060e001604052806004838154811061064557610644613284565b5b9060005260206000209060060201600001548152602001600483815481106106705761066f613284565b5b9060005260206000209060060201600101805461068c906133d6565b80601f01602080910402602001604051908101604052809291908181526020018280546106b8906133d6565b80156107055780601f106106da57610100808354040283529160200191610705565b820191906000526020600020905b8154815290600101906020018083116106e857829003601f168201915b505050505081526020016004838154811061072357610722613284565b5b9060005260206000209060060201600201805461073f906133d6565b80601f016020809104026020016040519081016040528092919081815260200182805461076b906133d6565b80156107b85780601f1061078d576101008083540402835291602001916107b8565b820191906000526020600020905b81548152906001019060200180831161079b57829003601f168201915b50505050508152602001600483815481106107d6576107d5613284565b5b906000526020600020906006020160030180546107f2906133d6565b80601f016020809104026020016040519081016040528092919081815260200182805461081e906133d6565b801561086b5780601f106108405761010080835404028352916020019161086b565b820191906000526020600020905b81548152906001019060200180831161084e57829003601f168201915b505050505081526020016004838154811061088957610888613284565b5b906000526020600020906006020160040160009054906101000a900460ff1660ff168152602001600483815481106108c4576108c3613284565b5b906000526020600020906006020160040160019054906101000a900460ff1660ff168152602001600081525083838151811061090357610902613284565b5b60200260200101819052508180610919906132e2565b9250505b8080610928906132e2565b91505061059c565b5081935050505092915050565b60606004805480602002602001604051908101604052809291908181526020016000905b82821015610b9757838290600052602060002090600602016040518060e00160405290816000820154815260200160018201805461099e906133d6565b80601f01602080910402602001604051908101604052809291908181526020018280546109ca906133d6565b8015610a175780601f106109ec57610100808354040283529160200191610a17565b820191906000526020600020905b8154815290600101906020018083116109fa57829003601f168201915b50505050508152602001600282018054610a30906133d6565b80601f0160208091040260200160405190810160405280929190818152602001828054610a5c906133d6565b8015610aa95780601f10610a7e57610100808354040283529160200191610aa9565b820191906000526020600020905b815481529060010190602001808311610a8c57829003601f168201915b50505050508152602001600382018054610ac2906133d6565b80601f0160208091040260200160405190810160405280929190818152602001828054610aee906133d6565b8015610b3b5780601f10610b1057610100808354040283529160200191610b3b565b820191906000526020600020905b815481529060010190602001808311610b1e57829003601f168201915b505050505081526020016004820160009054906101000a900460ff1660ff1660ff1681526020016004820160019054906101000a900460ff1660ff1660ff16815260200160058201548152505081526020019060010190610961565b50505050905090565b60606002805480602002602001604051908101604052809291908181526020016000905b82821015610d2a57838290600052602060002090600402016040518061010001604052908160008201548152602001600182018054610c02906133d6565b80601f0160208091040260200160405190810160405280929190818152602001828054610c2e906133d6565b8015610c7b5780601f10610c5057610100808354040283529160200191610c7b565b820191906000526020600020905b815481529060010190602001808311610c5e57829003601f168201915b505050505081526020016002820160009054906101000a900460ff1660ff1660ff1681526020016002820160019054906101000a900460ff1660ff1660ff1681526020016002820160029054906101000a900460ff1660ff1660ff1681526020016002820160039054906101000a900460ff161515151581526020016002820160049054906101000a900460ff1615151515815260200160038201548152505081526020019060010190610bc4565b50505050905090565b8560006001905060005b600280549050811015610d92578260048281548110610d5f57610d5e613284565b5b90600052602060002090600602016000015403610d7f5760009150610d92565b8080610d8a906132e2565b915050610d3d565b5080610dd3576040517f08c379a0000000000000000000000000000000000000000000000000000000008152600401610dca90613479565b60405180910390fd5b60046040518060e001604052808a81526020018981526020018881526020018781526020018660ff1681526020018560ff16815260200160008152509080600181540180825580915050600190039060005260206000209060060201600090919091909150600082015181600001556020820151816001019081610e579190613645565b506040820151816002019081610e6d9190613645565b506060820151816003019081610e839190613645565b5060808201518160040160006101000a81548160ff021916908360ff16021790555060a08201518160040160016101000a81548160ff021916908360ff16021790555060c0820151816005015550505050505050505050565b606060006002610eeb846103ef565b81548110610efc57610efb613284565b5b90600052602060002090600402016040518061010001604052908160008201548152602001600182018054610f30906133d6565b80601f0160208091040260200160405190810160405280929190818152602001828054610f5c906133d6565b8015610fa95780601f10610f7e57610100808354040283529160200191610fa9565b820191906000526020600020905b815481529060010190602001808311610f8c57829003601f168201915b505050505081526020016002820160009054906101000a900460ff1660ff1660ff1681526020016002820160019054906101000a900460ff1660ff1660ff1681526020016002820160029054906101000a900460ff1660ff1660ff1681526020016002820160039054906101000a900460ff161515151581526020016002820160049054906101000a900460ff1615151515815260200160038201548152505090506000805b60048054905081101561110957600481815481106110705761106f613284565b5b906000526020600020906006020160040160009054906101000a900460ff1660ff16836060015160ff161480156110e25750600481815481106110b6576110b5613284565b5b906000526020600020906006020160040160019054906101000a900460ff1660ff16836080015160ff16145b156110f65781806110f2906132e2565b9250505b8080611101906132e2565b91505061104f565b5060008167ffffffffffffffff81111561112657611125612cf8565b5b60405190808252806020026020018201604052801561115f57816020015b61114c612780565b8152602001906001900390816111445790505b5090506000805b600480549050811015611508576004818154811061118757611186613284565b5b906000526020600020906006020160040160009054906101000a900460ff1660ff16856060015160ff161480156111f95750600481815481106111cd576111cc613284565b5b906000526020600020906006020160040160019054906101000a900460ff1660ff16856080015160ff16145b156114f5576040518060e001604052806004838154811061121d5761121c613284565b5b90600052602060002090600602016000015481526020016004838154811061124857611247613284565b5b90600052602060002090600602016001018054611264906133d6565b80601f0160208091040260200160405190810160405280929190818152602001828054611290906133d6565b80156112dd5780601f106112b2576101008083540402835291602001916112dd565b820191906000526020600020905b8154815290600101906020018083116112c057829003601f168201915b50505050508152602001600483815481106112fb576112fa613284565b5b90600052602060002090600602016002018054611317906133d6565b80601f0160208091040260200160405190810160405280929190818152602001828054611343906133d6565b80156113905780601f1061136557610100808354040283529160200191611390565b820191906000526020600020905b81548152906001019060200180831161137357829003601f168201915b50505050508152602001600483815481106113ae576113ad613284565b5b906000526020600020906006020160030180546113ca906133d6565b80601f01602080910402602001604051908101604052809291908181526020018280546113f6906133d6565b80156114435780601f1061141857610100808354040283529160200191611443565b820191906000526020600020905b81548152906001019060200180831161142657829003601f168201915b505050505081526020016004838154811061146157611460613284565b5b906000526020600020906006020160040160009054906101000a900460ff1660ff1681526020016004838154811061149c5761149b613284565b5b906000526020600020906006020160040160019054906101000a900460ff1660ff16815260200160008152508383815181106114db576114da613284565b5b602002602001018190525081806114f1906132e2565b9250505b8080611500906132e2565b915050611166565b5081945050505050919050565b61151d612780565b611525612780565b6000600460008154811061153c5761153b613284565b5b906000526020600020906006020160050154111561178957600460008154811061156957611568613284565b5b90600052602060002090600602016040518060e00160405290816000820154815260200160018201805461159c906133d6565b80601f01602080910402602001604051908101604052809291908181526020018280546115c8906133d6565b80156116155780601f106115ea57610100808354040283529160200191611615565b820191906000526020600020905b8154815290600101906020018083116115f857829003601f168201915b5050505050815260200160028201805461162e906133d6565b80601f016020809104026020016040519081016040528092919081815260200182805461165a906133d6565b80156116a75780601f1061167c576101008083540402835291602001916116a7565b820191906000526020600020905b81548152906001019060200180831161168a57829003601f168201915b505050505081526020016003820180546116c0906133d6565b80601f01602080910402602001604051908101604052809291908181526020018280546116ec906133d6565b80156117395780601f1061170e57610100808354040283529160200191611739565b820191906000526020600020905b81548152906001019060200180831161171c57829003601f168201915b505050505081526020016004820160009054906101000a900460ff1660ff1660ff1681526020016004820160019054906101000a900460ff1660ff1660ff16815260200160058201548152505090505b6000600190505b600480549050811015611a15578160c00151600482815481106117b6576117b5613284565b5b9060005260206000209060060201600501541115611a0257600481815481106117e2576117e1613284565b5b90600052602060002090600602016040518060e001604052908160008201548152602001600182018054611815906133d6565b80601f0160208091040260200160405190810160405280929190818152602001828054611841906133d6565b801561188e5780601f106118635761010080835404028352916020019161188e565b820191906000526020600020905b81548152906001019060200180831161187157829003601f168201915b505050505081526020016002820180546118a7906133d6565b80601f01602080910402602001604051908101604052809291908181526020018280546118d3906133d6565b80156119205780601f106118f557610100808354040283529160200191611920565b820191906000526020600020905b81548152906001019060200180831161190357829003601f168201915b50505050508152602001600382018054611939906133d6565b80601f0160208091040260200160405190810160405280929190818152602001828054611965906133d6565b80156119b25780601f10611987576101008083540402835291602001916119b2565b820191906000526020600020905b81548152906001019060200180831161199557829003601f168201915b505050505081526020016004820160009054906101000a900460ff1660ff1660ff1681526020016004820160019054906101000a900460ff1660ff1660ff16815260200160058201548152505091505b8080611a0d906132e2565b915050611790565b508091505090565b611a256127c3565b600360008373ffffffffffffffffffffffffffffffffffffffff1673ffffffffffffffffffffffffffffffffffffffff168152602001908152602001600020600001548303611bf357600360008373ffffffffffffffffffffffffffffffffffffffff1673ffffffffffffffffffffffffffffffffffffffff1681526020019081526020016000206040518061010001604052908160008201548152602001600182018054611ad3906133d6565b80601f0160208091040260200160405190810160405280929190818152602001828054611aff906133d6565b8015611b4c5780601f10611b2157610100808354040283529160200191611b4c565b820191906000526020600020905b815481529060010190602001808311611b2f57829003601f168201915b505050505081526020016002820160009054906101000a900460ff1660ff1660ff1681526020016002820160019054906101000a900460ff1660ff1660ff1681526020016002820160029054906101000a900460ff1660ff1660ff1681526020016002820160039054906101000a900460ff161515151581526020016002820160049054906101000a900460ff161515151581526020016003820154815250509050611c2e565b6040517f08c379a0000000000000000000000000000000000000000000000000000000008152600401611c2590613789565b60405180910390fd5b92915050565b600080600090505b600280549050811015611c91578260048281548110611c5e57611c5d613284565b5b90600052602060002090600602016000015403611c7e5780915050611c93565b8080611c89906132e2565b915050611c3c565b505b919050565b611ca06127c3565b600360008373ffffffffffffffffffffffffffffffffffffffff1673ffffffffffffffffffffffffffffffffffffffff1681526020019081526020016000206040518061010001604052908160008201548152602001600182018054611d05906133d6565b80601f0160208091040260200160405190810160405280929190818152602001828054611d31906133d6565b8015611d7e5780601f10611d5357610100808354040283529160200191611d7e565b820191906000526020600020905b815481529060010190602001808311611d6157829003601f168201915b505050505081526020016002820160009054906101000a900460ff1660ff1660ff1681526020016002820160019054906101000a900460ff1660ff1660ff1681526020016002820160029054906101000a900460ff1660ff1660ff1681526020016002820160039054906101000a900460ff161515151581526020016002820160049054906101000a900460ff161515151581526020016003820154815250509050919050565b8460006001905060005b600280549050811015611e84578260028281548110611e5157611e50613284565b5b90600052602060002090600402016000015403611e715760009150611e84565b8080611e7c906132e2565b915050611e2f565b5080611ec5576040517f08c379a0000000000000000000000000000000000000000000000000000000008152600401611ebc9061381b565b60405180910390fd5b60026040518061010001604052808981526020018881526020018760ff1681526020018660ff1681526020018560ff16815260200160001515815260200160011515815260200160008152509080600181540180825580915050600190039060005260206000209060040201600090919091909150600082015181600001556020820151816001019081611f599190613645565b5060408201518160020160006101000a81548160ff021916908360ff16021790555060608201518160020160016101000a81548160ff021916908360ff16021790555060808201518160020160026101000a81548160ff021916908360ff16021790555060a08201518160020160036101000a81548160ff02191690831515021790555060c08201518160020160046101000a81548160ff02191690831515021790555060e0820151816003015550506040518061010001604052808881526020018781526020018660ff1681526020018560ff1681526020018460ff1681526020016000151581526020016001151581526020016000815250600360003373ffffffffffffffffffffffffffffffffffffffff1673ffffffffffffffffffffffffffffffffffffffff1681526020019081526020016000206000820151816000015560208201518160010190816120b19190613645565b5060408201518160020160006101000a81548160ff021916908360ff16021790555060608201518160020160016101000a81548160ff021916908360ff16021790555060808201518160020160026101000a81548160ff021916908360ff16021790555060a08201518160020160036101000a81548160ff02191690831515021790555060c08201518160020160046101000a81548160ff02191690831515021790555060e0820151816003015590505050505050505050565b600080600090505b6002805490508110156121ed57826004828154811061219557612194613284565b5b906000526020600020906006020160000154036121da57600481815481106121c0576121bf613284565b5b9060005260206000209060060201600501549150506121ef565b80806121e5906132e2565b915050612173565b505b919050565b4260005481101561223a576040517f08c379a000000000000000000000000000000000000000000000000000000000815260040161223190613887565b60405180910390fd5b60015481111561227f576040517f08c379a0000000000000000000000000000000000000000000000000000000008152600401612276906138f3565b60405180910390fd5b81836000600261228e846103ef565b8154811061229f5761229e613284565b5b90600052602060002090600402019050600060046122bc84611c34565b815481106122cd576122cc613284565b5b9060005260206000209060060201905060128260020160009054906101000a900460ff1660ff161015612335576040517f08c379a000000000000000000000000000000000000000000000000000000000815260040161232c9061395f565b60405180910390fd5b8160020160049054906101000a900460ff16612386576040517f08c379a000000000000000000000000000000000000000000000000000000000815260040161237d906139cb565b60405180910390fd5b8160020160039054906101000a900460ff16156123d8576040517f08c379a00000000000000000000000000000000000000000000000000000000081526004016123cf90613a37565b60405180910390fd5b8160020160019054906101000a900460ff1660ff168160040160009054906101000a900460ff1660ff1614801561243657508160020160029054906101000a900460ff1660ff168160040160019054906101000a900460ff1660ff16145b612475576040517f08c379a000000000000000000000000000000000000000000000000000000000815260040161246c90613ac9565b60405180910390fd5b60016002612482886103ef565b8154811061249357612492613284565b5b906000526020600020906004020160020160036101000a81548160ff0219169083151502179055508660026124c7886103ef565b815481106124d8576124d7613284565b5b90600052602060002090600402016003018190555060005b60048054905081101561257c57876004828154811061251257612511613284565b5b90600052602060002090600602016000015403612569576004818154811061253d5761253c613284565b5b9060005260206000209060060201600501600081548092919061255f906132e2565b919050555061257c565b8080612574906132e2565b9150506124f0565b5050505050505050565b7f000000000000000000000000000000000000000000000000000000000000000081565b60008060026125b8846103ef565b815481106125c9576125c8613284565b5b906000526020600020906004020160405180610100016040529081600082015481526020016001820180546125fd906133d6565b80601f0160208091040260200160405190810160405280929190818152602001828054612629906133d6565b80156126765780601f1061264b57610100808354040283529160200191612676565b820191906000526020600020905b81548152906001019060200180831161265957829003601f168201915b505050505081526020016002820160009054906101000a900460ff1660ff1660ff1681526020016002820160019054906101000a900460ff1660ff1660ff1681526020016002820160029054906101000a900460ff1660ff1660ff1681526020016002820160039054906101000a900460ff161515151581526020016002820160049054906101000a900460ff1615151515815260200160038201548152505090506012816040015160ff161015801561273157508060c001515b1561274057600191505061277b565b6040517f08c379a000000000000000000000000000000000000000000000000000000000815260040161277290613b35565b60405180910390fd5b919050565b6040518060e0016040528060008152602001606081526020016060815260200160608152602001600060ff168152602001600060ff168152602001600081525090565b6040518061010001604052806000815260200160608152602001600060ff168152602001600060ff168152602001600060ff168152602001600015158152602001600015158152602001600081525090565b6000604051905090565b600080fd5b600080fd5b6000819050919050565b61283c81612829565b811461284757600080fd5b50565b60008135905061285981612833565b92915050565b6000602082840312156128755761287461281f565b5b60006128838482850161284a565b91505092915050565b61289581612829565b82525050565b60006020820190506128b0600083018461288c565b92915050565b600080604083850312156128cd576128cc61281f565b5b60006128db8582860161284a565b92505060206128ec8582860161284a565b9150509250929050565b600081519050919050565b600082825260208201905092915050565b6000819050602082019050919050565b61292b81612829565b82525050565b600081519050919050565b600082825260208201905092915050565b60005b8381101561296b578082015181840152602081019050612950565b60008484015250505050565b6000601f19601f8301169050919050565b600061299382612931565b61299d818561293c565b93506129ad81856020860161294d565b6129b681612977565b840191505092915050565b600060ff82169050919050565b6129d7816129c1565b82525050565b600060e0830160008301516129f56000860182612922565b5060208301518482036020860152612a0d8282612988565b91505060408301518482036040860152612a278282612988565b91505060608301518482036060860152612a418282612988565b9150506080830151612a5660808601826129ce565b5060a0830151612a6960a08601826129ce565b5060c0830151612a7c60c0860182612922565b508091505092915050565b6000612a9383836129dd565b905092915050565b6000602082019050919050565b6000612ab3826128f6565b612abd8185612901565b935083602082028501612acf85612912565b8060005b85811015612b0b5784840389528151612aec8582612a87565b9450612af783612a9b565b925060208a01995050600181019050612ad3565b50829750879550505050505092915050565b60006020820190508181036000830152612b378184612aa8565b905092915050565b600081519050919050565b600082825260208201905092915050565b6000819050602082019050919050565b60008115159050919050565b612b8081612b6b565b82525050565b600061010083016000830151612b9f6000860182612922565b5060208301518482036020860152612bb78282612988565b9150506040830151612bcc60408601826129ce565b506060830151612bdf60608601826129ce565b506080830151612bf260808601826129ce565b5060a0830151612c0560a0860182612b77565b5060c0830151612c1860c0860182612b77565b5060e0830151612c2b60e0860182612922565b508091505092915050565b6000612c428383612b86565b905092915050565b6000602082019050919050565b6000612c6282612b3f565b612c6c8185612b4a565b935083602082028501612c7e85612b5b565b8060005b85811015612cba5784840389528151612c9b8582612c36565b9450612ca683612c4a565b925060208a01995050600181019050612c82565b50829750879550505050505092915050565b60006020820190508181036000830152612ce68184612c57565b905092915050565b600080fd5b600080fd5b7f4e487b7100000000000000000000000000000000000000000000000000000000600052604160045260246000fd5b612d3082612977565b810181811067ffffffffffffffff82111715612d4f57612d4e612cf8565b5b80604052505050565b6000612d62612815565b9050612d6e8282612d27565b919050565b600067ffffffffffffffff821115612d8e57612d8d612cf8565b5b612d9782612977565b9050602081019050919050565b82818337600083830152505050565b6000612dc6612dc184612d73565b612d58565b905082815260208101848484011115612de257612de1612cf3565b5b612ded848285612da4565b509392505050565b600082601f830112612e0a57612e09612cee565b5b8135612e1a848260208601612db3565b91505092915050565b612e2c816129c1565b8114612e3757600080fd5b50565b600081359050612e4981612e23565b92915050565b60008060008060008060c08789031215612e6c57612e6b61281f565b5b6000612e7a89828a0161284a565b965050602087013567ffffffffffffffff811115612e9b57612e9a612824565b5b612ea789828a01612df5565b955050604087013567ffffffffffffffff811115612ec857612ec7612824565b5b612ed489828a01612df5565b945050606087013567ffffffffffffffff811115612ef557612ef4612824565b5b612f0189828a01612df5565b9350506080612f1289828a01612e3a565b92505060a0612f2389828a01612e3a565b9150509295509295509295565b600060e083016000830151612f486000860182612922565b5060208301518482036020860152612f608282612988565b91505060408301518482036040860152612f7a8282612988565b91505060608301518482036060860152612f948282612988565b9150506080830151612fa960808601826129ce565b5060a0830151612fbc60a08601826129ce565b5060c0830151612fcf60c0860182612922565b508091505092915050565b60006020820190508181036000830152612ff48184612f30565b905092915050565b600073ffffffffffffffffffffffffffffffffffffffff82169050919050565b600061302782612ffc565b9050919050565b6130378161301c565b811461304257600080fd5b50565b6000813590506130548161302e565b92915050565b600080604083850312156130715761307061281f565b5b600061307f8582860161284a565b925050602061309085828601613045565b9150509250929050565b6000610100830160008301516130b36000860182612922565b50602083015184820360208601526130cb8282612988565b91505060408301516130e060408601826129ce565b5060608301516130f360608601826129ce565b50608083015161310660808601826129ce565b5060a083015161311960a0860182612b77565b5060c083015161312c60c0860182612b77565b5060e083015161313f60e0860182612922565b508091505092915050565b60006020820190508181036000830152613164818461309a565b905092915050565b6000602082840312156131825761318161281f565b5b600061319084828501613045565b91505092915050565b600080600080600060a086880312156131b5576131b461281f565b5b60006131c38882890161284a565b955050602086013567ffffffffffffffff8111156131e4576131e3612824565b5b6131f088828901612df5565b945050604061320188828901612e3a565b935050606061321288828901612e3a565b925050608061322388828901612e3a565b9150509295509295909350565b6132398161301c565b82525050565b60006020820190506132546000830184613230565b92915050565b61326381612b6b565b82525050565b600060208201905061327e600083018461325a565b92915050565b7f4e487b7100000000000000000000000000000000000000000000000000000000600052603260045260246000fd5b7f4e487b7100000000000000000000000000000000000000000000000000000000600052601160045260246000fd5b60006132ed82612829565b91507fffffffffffffffffffffffffffffffffffffffffffffffffffffffffffffffff820361331f5761331e6132b3565b5b600182019050919050565b600082825260208201905092915050565b7f4e6f20566f746572207769746820676976656e20436974697a656e204e6f5f00600082015250565b6000613371601f8361332a565b915061337c8261333b565b602082019050919050565b600060208201905081810360008301526133a081613364565b9050919050565b7f4e487b7100000000000000000000000000000000000000000000000000000000600052602260045260246000fd5b600060028204905060018216806133ee57607f821691505b602082108103613401576134006133a7565b5b50919050565b7f43616e646964617465207769746820636974697a656e204e6f2e20616c72656160008201527f6479206578697374210000000000000000000000000000000000000000000000602082015250565b600061346360298361332a565b915061346e82613407565b604082019050919050565b6000602082019050818103600083015261349281613456565b9050919050565b60008190508160005260206000209050919050565b60006020601f8301049050919050565b600082821b905092915050565b6000600883026134fb7fffffffffffffffffffffffffffffffffffffffffffffffffffffffffffffffff826134be565b61350586836134be565b95508019841693508086168417925050509392505050565b6000819050919050565b600061354261353d61353884612829565b61351d565b612829565b9050919050565b6000819050919050565b61355c83613527565b61357061356882613549565b8484546134cb565b825550505050565b600090565b613585613578565b613590818484613553565b505050565b5b818110156135b4576135a960008261357d565b600181019050613596565b5050565b601f8211156135f9576135ca81613499565b6135d3846134ae565b810160208510156135e2578190505b6135f66135ee856134ae565b830182613595565b50505b505050565b600082821c905092915050565b600061361c600019846008026135fe565b1980831691505092915050565b6000613635838361360b565b9150826002028217905092915050565b61364e82612931565b67ffffffffffffffff81111561366757613666612cf8565b5b61367182546133d6565b61367c8282856135b8565b600060209050601f8311600181146136af576000841561369d578287015190505b6136a78582613629565b86555061370f565b601f1984166136bd86613499565b60005b828110156136e5578489015182556001820191506020850194506020810190506136c0565b8683101561370257848901516136fe601f89168261360b565b8355505b6001600288020188555050505b505050505050565b7f436974697a656e4e6f2e20616e6420566f746572204164647265737320646f6560008201527f736e2774206d6174636821210000000000000000000000000000000000000000602082015250565b6000613773602c8361332a565b915061377e82613717565b604082019050919050565b600060208201905081810360008301526137a281613766565b9050919050565b7f566f746572207769746820636974697a656e204e6f2e20616c7265616479206560008201527f7869737421000000000000000000000000000000000000000000000000000000602082015250565b600061380560258361332a565b9150613810826137a9565b604082019050919050565b60006020820190508181036000830152613834816137f8565b9050919050565b7f456c656374696f6e2074696d65206f7574210000000000000000000000000000600082015250565b600061387160128361332a565b915061387c8261383b565b602082019050919050565b600060208201905081810360008301526138a081613864565b9050919050565b7f456c656374696f6e20686173206e6f7420737461727465642079657421000000600082015250565b60006138dd601d8361332a565b91506138e8826138a7565b602082019050919050565b6000602082019050818103600083015261390c816138d0565b9050919050565b7f416765206e6565647320746f206265206772656174657220746861746e203138600082015250565b600061394960208361332a565b915061395482613913565b602082019050919050565b600060208201905081810360008301526139788161393c565b9050919050565b7f566f746572206d75737420626520616c69766500000000000000000000000000600082015250565b60006139b560138361332a565b91506139c08261397f565b602082019050919050565b600060208201905081810360008301526139e4816139a8565b9050919050565b7f416c726561647920766f74656421000000000000000000000000000000000000600082015250565b6000613a21600e8361332a565b9150613a2c826139eb565b602082019050919050565b60006020820190508181036000830152613a5081613a14565b9050919050565b7f566f746572206973206e6f7420696e207468652073616d652061732063616e6460008201527f6964617465207374617465206f7220636f6e7374697475656e63792041726561602082015250565b6000613ab360408361332a565b9150613abe82613a57565b604082019050919050565b60006020820190508181036000830152613ae281613aa6565b9050919050565b7f566f746572206973206e6f7420456c69626c6520746f20766f74652121000000600082015250565b6000613b1f601d8361332a565b9150613b2a82613ae9565b602082019050919050565b60006020820190508181036000830152613b4e81613b12565b905091905056fea2646970667358221220ed648217cabe5d74678a85c956c364b0c4fb4974c6fd7999b60876bcddb564db64736f6c63430008110033",
  "linkReferences": {},
  "deployedLinkReferences": {}
}